:100000000C946A140C949B140C949B140C949B14E5
:100010000C949B140C949B140C949B140C949B14A4
:100020000C949B140C949B140C949B140C949B1494
:100030000C949B140C949B140C949B140C949B1484
:100040000C949B140C9458C90C949B140C949B1402
:100050000C949B140C949B140C94EE520C94A8D307
:100060000C949B140C94F8410C949B140C949B14CA
:100070000C949B140C949B140C949B140C949B1444
:100080000C949B140C949B140C949B140C949B1434
:100090000C949B140C949B140C949B140C949B1424
:1000A0000C949B140C949B140C949B140C949B1414
:1000B0000C949B140C949B140C949B140C949B1404
:1000C0000C949B140C949B140C949B140C9422423F
:1000D0000C949B140C949B140C949B140C949B14E4
:1000E0000C949B14952D773151359338FC370A3891
:1000F0005C37AC37933893389338933893389338C8
:10010000933893382B3834383D384B384F38933840
:100110009338933893389338933893389338933887
:10012000933893385238A22DAB2DAF2DB52DBF2D5E
:10013000C92DD32D9338E72D933893388D2FA22FC7
:10014000A82FD22FEA2F93389338933807300D30E9
:10015000403093386F30783081308A3093309B3024
:10016000A330AB30B330BB30C330CB30D330DB3017
:10017000E330EB30F330FB3003310B3113311B3103
:1001800023312B31933893383331DD2D3E314931D2
:100190009338533164319338933893389338FE2D24
:1001A0009338162E2E2E372E412E4B2E552E5F2E87
:1001B000692E732E93388E2E982EA22EAC2EB62E2C
:1001C000C02ECA2ED42E9338D62EE02EEA2EF42E30
:1001D000FE2E082F122F1C2F933893389338933804
:1001E000933893381E2FF32D8B3197319731D733B6
:1001F000D733D733D733D733D733D733D733D733AF
:10020000D733D733D733D733D733D733D733D7339E
:10021000D733D733D733D733D733D733D733D7338E
:10022000D733D733D733D733CA31D931E83109324D
:100230004632D7328831D7337933A333BA33823257
:10024000B132A189A489938997899D89DB89A8897D
:10025000AC89B289B689BA89C089C489C889DB8961
:10026000CE89D289D689C4D2C9D2CED2D8D2E2D24E
:100270005BD3ECD2F4D2FCD206D310D31AD329D359
:1002800033D35BD33DD347D351D3084AD73B3BCE7F
:10029000016E84BCBFFDC12F3D6C74319ABD568385
:1002A0003DDA3D00C77F11BED9E4BB4C3E916BAA3D
:1002B000AABE000000803F05A84CCDB2D44EB9388C
:1002C00036A9020C50B9918688083CA6AAAA2ABE73
:1002D000000000803F004E414E494E495459494E5E
:1002E00046CDCCCC3D0AD7233C17B7D13877CC2BA1
:1002F000329595E6241FB14F0A000020410000C846
:100300004200401C4620BCBE4CCA1B0E5AAEC59DC6
:100310007400407A10F35A00A0724E18090010A51C
:10032000D4E80000E87648170000E40B540200000F
:10033000CA9A3B000000E1F5050000809698000095
:100340000040420F000000A08601000000102700BE
:10035000000000E803000000006400000000000A44
:1003600000000000000100000000002C76D888DCAE
:10037000674F0823DFC1DFAE59E1B1B796E5E3E48B
:1003800053C63AE651997696E8E6C28426EB898C04
:100390009B62ED407C6FFCEFBC9C9F40F2BAA56F66
:1003A000A5F490055A2AF75C936B6CF9676DC11B35
:1003B000FCE0E40D47FEF520E6B500D0ED902E03FD
:1003C00000943577050080841E080000204E0A0046
:1003D0000000C80C333333330F986E12831141EF92
:1003E0008D2114893BE65516CFFEE6DB18D1844BF0
:1003F000381BF77C1D901DA4BBE424203284725E60
:10040000228100C9F124ECA1E53D27434F4D4D5514
:100410004E49434154494F4E0044525952554E00A3
:100420004552524F525300494E464F004543484FA4
:100430000047322F47332062616420706172616D22
:1004400065746572730A00205A3A200020593A20D8
:100450000042656420583A20004D65736820706F33
:10046000696E742063616E6E6F74206265207265C0
:10047000736F6C7665640A00456E642066696C650E
:10048000206C6973740A00426567696E2066696C46
:1004900065206C6973740A00286E6F2066696C654C
:1004A00029005344207072696E74696E6720627906
:1004B000746520004E6F74205344207072696E740E
:1004C000696E670A0043757272656E742066696CA6
:1004D000653A20005072696E742074696D653A2027
:1004E000002C042704200419040B046F66660044E2
:1004F000454255473A004B494C4C45442E20004D4F
:100500003131332053006F6B00544845524D414CFC
:100510005F50524F54454354494F4E004155544F3C
:100520005245504F52545F53445F535441545553B6
:1005300000454D455247454E43595F504152534542
:100540005200434153455F4C494748545F4252492A
:100550004748544E45535300544F47474C455F4C12
:10056000494748545300534F4654574152455F50F2
:100570004F574552004255494C445F504552434500
:100580004E54004C4556454C494E475F44415441FA
:10059000005A5F50524F4245004155544F4C45560A
:1005A000454C005052494E545F4A4F420050524F02
:1005B0004752455353004155544F5245504F5254A2
:1005C0005F54454D5000564F4C554D45545249438C
:1005D00000454550524F4D0053455249414C5F58DC
:1005E0004F4E5F584F4646004649524D574152457F
:1005F0005F4E414D453A4D61726C696E20312E312E
:100600002E3920284769746875622920534F555246
:1006100043455F434F44455F55524C3A687474708C
:10062000733A2F2F6769746875622E636F6D2F4D53
:1006300061726C696E4669726D776172652F4D618A
:10064000726C696E2050524F544F434F4C5F564569
:100650005253494F4E3A312E30204D414348494E76
:10066000455F545950453A3344205072696E746561
:10067000722045585452554445525F434F554E548D
:100680003A3120555549443A6365646532613266B2
:100690002D343161322D343734382D396231322DD9
:1006A0006335356336326633363766660A002F2F78
:1006B0002000205400205200416363656C65726124
:1006C00074696F6E3A2050005741524E494E47218F
:1006D000204C6F77205A204A65726B206D6179201B
:1006E0006C65616420746F20756E77616E746564EB
:1006F000207061757365732E0A0020466C6F773A1F
:10070000200000013637263FFFFFFF463C3D380EF4
:10071000FFFFFF272B303A0CFFFFFFFF4AFF0B08BC
:100720002C2D2EFF1A1C18FFFF2F084505FF4243F2
:10073000290A0061626C656420286D696E20746509
:100740006D702000436F6C64206578747275646509
:10075000732061726520004E6F2063617365206CA9
:10076000696768740A004D65736820706F696E74FC
:100770002063616E6E6F74206265207265736F6CAA
:100780007665640A004D34323120696E636F72728F
:1007900065637420706172616D6574657220757334
:1007A0006167650A00454550524F4D204F4B0A0086
:1007B0003F5A206F7574206F662072616E676520E6
:1007C000282D323020746F203230290A003A200060
:1007D00050726F6265205A204F66667365740041DF
:1007E00063746976652045787472756465723A2021
:1007F00000496E76616C6964206578747275646511
:10080000720A00534420636172642072656D6F76D2
:1008100065642E005344206361726420696E7365C1
:10082000727465642E0047323900473238000A205E
:100830002020204C6576656C696E6720697320699D
:100840006E2070726F67726573732E004D3939397F
:10085000206F6B2E0A006C63645F7072656865615F
:10086000745F6265645F74656D700074656D70437C
:10087000686F69636500473238205830205930006E
:10088000473238205A30004732382059300047323A
:100890003820583000473238004D3130362050254E
:1008A0006920532569004D31303920532569004DA9
:1008B00031393020532569004D3432302053300A0D
:1008C000473238205230205820590043616E6E6FF5
:1008D0007420656E746572207375626469723A2063
:1008E0000066696C652073656C6563743A006973B2
:1008F00044697220696E6465783A00726F6F742083
:10090000696E6465783A0052656672657368206F37
:100910006B2E0A00506F7765722D6C6F73732063B6
:100920006F6E74696E756500506F7765722D6C6FB0
:1009300073732063616E63656C00556E6B6E6F77C9
:100940006E2E004D353030004D32342053256C640E
:100950002054256C64004D32332025730047393212
:100960002E30205A257320452573004D3432302017
:10097000532569205A2573004732382052302058B9
:100980002059004731205A32004739322E30205A40
:1009900030004D343230205330205A300020205067
:1009A0006C616E6E657242756666657242797465D9
:1009B000733A20002046726565204D656D6F72792F
:1009C0003A2000436F6D70696C65643A204A616E2D
:1009D00020313020323031390A00207C20417574BA
:1009E000686F723A20286E6F6E652C2064656661B0
:1009F000756C7420636F6E666967290A0032303146
:100A0000382D30382D303100204C617374205570F2
:100A100064617465643A2000312E312E390A004D2C
:100A200061726C696E0020536F6674776172652025
:100A300052657365740A00205761746368646F6758
:100A40002052657365740A002042726F776E206FC2
:100A500075742052657365740A0020457874657258
:100A60006E616C2052657365740A00506F77657211
:100A700055700A0073746172740A004D3234004D6F
:100A80003233202573006175746F25692E67006508
:100A900072726F722077726974696E6720746F204A
:100AA00066696C650A0057726974696E6720746FB5
:100AB0002066696C653A2000205A3A0020593A00B5
:100AC00020583A00656E6473746F7073206869749F
:100AD0003A2000446F6E6520736176696E67206608
:100AE000696C652E0A004D3239002569730025694D
:100AF0006D20256973002569682025696D202569A9
:100B00007300256964202569682025696D202569A1
:100B10007300256979202569642025696820256985
:100B20006D2025697300656E7175657565696E6701
:100B300020220020496E76616C69642065787472A9
:100B400075646572200000000000000000000000D5
:100B50000000000048430000484300004843426949
:100B60006C696E656172204C6576656C696E672094
:100B7000477269643A0A00486F6D696E6720666162
:100B8000696C656400202844525952554E2900472B
:100B90003239204175746F20426564204C6576655A
:100BA0006C696E67003F20284C2C522C462C422941
:100BB000206F7574206F6620626F756E64732E0AE5
:100BC000003F2856296572626F7365206C657665F3
:100BD0006C20697320696D706C61757369626C65F6
:100BE0002028302D34292E0A00426164205A2076B4
:100BF000616C75650A004E6F2062696C696E656193
:100C00007220677269640A0050726F74656374655C
:100C1000642050696E0A0046696C616D656E7420CF
:100C2000757365643A200053746174733A20002C24
:100C3000204C6F6E67657374206A6F623A200054AF
:100C40006F74616C2074696D653A2000537461742F
:100C5000733A20002C204661696C65643A20002CB0
:100C60002046696E69736865643A20005072696E47
:100C700074733A200053746174733A200070012C2D
:100C80000190012701B0012201C0011D01F00118EE
:100C9000011002130130020E0160020901900204EA
:100CA00001C002FF000003FA004003F5008003F0DA
:100CB00000D003EB002004E6007004E100E004DC57
:100CC000004005D700C005D2004006CD00D006C8C0
:100CD000008007C3003008BE00F008B900C009B4A6
:100CE00000B00AAF00B00BAA00D00CA500000EA007
:100CF00000500F9B00C01096005012910000148C01
:100D000000C0158700B0178200B0197D00D01B7895
:100D100000001E730040206E0090226900F02464E1
:100D20000040275F0090295A00E02B5500102E50FC
:100D30000020304B0010324600E033410090353C3B
:100D4000001037370070383200A0392D00B03A2833
:100D500000A03B2300603C1E00103D1900903D1494
:100D600000103E0F00703E0A00C03E0500003F002C
:100D700000403FFBFF803FF6FFC03FF1FF453400DE
:100D80004533004532004531004530005A320059A4
:100D900032005832005A005900580045312054485A
:100DA00045524D414C2052554E4157415900424504
:100DB0004420544845524D414C2052554E415741D4
:100DC0005900546865726D616C2052756E6177616F
:100DD00079004531204572723A204D415854454DB5
:100DE00050004572723A204D415854454D502042B2
:100DF0004544004D415854454D5020747269676711
:100E000065726564004531204572723A204D494E45
:100E100054454D50004572723A204D494E54454D4F
:100E20005020424544004D494E54454D5020747267
:100E300069676765726564004D3834205820592011
:100E40005A204500202F002042403A0020403A001E
:100E5000990D970D950D920D8F0D8C0D890D860DA9
:100E6000830D800D7D0D747275650066616C736510
:100E7000002074656D7065726174757265207072A2
:100E8000657761726E207472696767657265643A2E
:100E90002000207072657761726E20666C61672039
:100EA000636C65617265640A0020686F6D696E67C6
:100EB0002073656E73697469766974793A200025C8
:100EC000753A2530327500253032753A2530327545
:100ED0000025756420253032753A25303275007C46
:100EE0002000207C3062003A002063757272656ECB
:100EF000742064656372656173656420746F20009B
:100F00006D41290A0020647269766572206F7665EA
:100F10007274656D70657261747572652077617247
:100F20006E696E67212028003A2000447269766558
:100F300072206572726F720073686F727420746FC2
:100F40002067726F756E642028636F696C20422978
:100F50000A0073686F727420746F2067726F756E09
:100F6000642028636F696C2041290A006F766572DE
:100F700074656D70657261747572650A00206472C3
:100F800069766572206572726F722064657465633C
:100F90007465643A0A0020746F6F206C6F6E67206E
:100FA000657874727573696F6E2070726576656EA0
:100FB0007465640A0020636F6C64206578747275D0
:100FC00073696F6E2070726576656E7465640A0071
:100FD00043616E6E6F74206F70656E20737562640E
:100FE000697220006563686F3A0046696C65206429
:100FF000656C657465643A0044656C6574696F6E10
:10100000206661696C65642C2046696C653A200035
:101010006F70656E206661696C65642C2046696C32
:10102000653A20004572726F723A0000002000237A
:1010300000260029002C002F0032000001000003D0
:10104000010601090100002200250028002B002EC6
:10105000003100340002010000050108010B010508
:10106000050505070508080808020202020A0A0821
:101070000804040404010101010101010103030347
:101080000303030303040707070C0C0C0C0C0C0CE4
:101090000C0202020206060606060606060B0B0BEB
:1010A0000B0B0B0B0B07070A0A0A0A0A0A050505B0
:1010B0000404040808010210202008081020401031
:1010C000204080020102010804020101020408100C
:1010D000204080804020100804020180040201802A
:1010E0004020100804020108040201010204081053
:1010F000204080010204081020408010080408806D
:1011000010204004408010204004805772697469A8
:101110006E6720746F2066696C653A20006F706599
:101120006E206661696C65642C2046696C653A20A6
:10113000006F70656E206661696C65642C2046697D
:101140006C653A200046696C652073656C65637454
:1011500065640A002053697A653A200046696C6527
:10116000206F70656E65643A20002066696C653A90
:101170002000646F696E67006672657368004E6F69
:10118000772000454E4420535542524F5554494E06
:10119000450A002220706F73002220706172656E14
:1011A000743A2200535542524F5554494E452043FC
:1011B000414C4C207461726765743A22004B494C73
:1011C0004C45442E2000747279696E6720746F203C
:1011D00063616C6C207375622D67636F6465206654
:1011E000696C6573207769746820746F6F206D6116
:1011F0006E79206C6576656C732E204D4158206C9D
:101200006576656C2069733A007C3C3E5E2B3D3F01
:101210002F5B5D3B2C2A225C0024F4D43050C38E1B
:1012200020C2A24017828B7011127A910D816CD965
:101230000AA861E108C7586607615143061E4B5D65
:1012400005C145A7041A411104093D9803713931BC
:10125000034036DB0265339102D4305402802E1DE8
:1012600002632CEE01752AC501B028A00110278168
:10127000018F2564012B244B01E0223401AC211F96
:10128000018D200D01801FFC00841EED00971DDFE5
:1012900000B81CD200E61BC600201BBC00641AB2BA
:1012A00000B219A8000A19A0006A189900D1179174
:1012B0000040178B00B516840031167E00B31579F7
:1012C000003A157300C7146F0058146A00EE1366D5
:1012D000008813630025135E00C7125B006C125771
:1012E0000015125400C111510070114F0021114B13
:1012F00000D61049008D10470046104400021042ED
:1013000000C00F4000800F3E00420F3C00060F3B24
:1013100000CB0E3800930E37005C0E3500270E34DC
:1013200000F30D3200C10D3100900D3000600D2E24
:1013300000320D2D00050D2C00D90C2B00AE0C2910
:1013400000850C29005C0C2700350C27000E0C26AC
:1013500000E80B2400C40B2400A00B23007D0B230A
:10136000005A0B2100390B2100180B2000F80A1F2E
:1013700000D90A1E00BB0A1E009D0A1D00800A1D1E
:1013800000630A1C00470A1B002C0A1B00110A1AE2
:1013900000F7091A00DD091900C4091900AB091981
:1013A00000920917007B091800630917004C091601
:1013B0000036091600200916000A091500F508155F
:1013C00000E0081400CC081400B8081400A40814A5
:1013D00000900813007D0812006B081300580812D3
:1013E00000460812003408110023081100120811E9
:1013F0000001081100F0071000E0071000D00710EE
:1014000000C0071000B0070F00A107100091070EE1
:101410000083070F0074070F0065070E0057070EC3
:101420000049070E003B070D002E070E0020070D98
:101430000013070D0006070D00F9060C00ED060D60
:1014400000E0060C00D4060C00C8060C00BC060C1C
:1014500000B0060C00A4060B0099060C008D060BCC
:101460000082060B0077060B006C060B0061060A73
:101470000057060B004C060A0042060A0038060A0E
:10148000002E060A0024060A001A060A00100609A1
:101490000007060A00FD050900F4050900EB05092F
:1014A00000E2050900D9050900D0050900C70509B2
:1014B00000BE050900B5050800AD050800A5050931
:1014C000009C050800940508008C050800840508A8
:1014D000007C050800740508006C05070065050818
:1014E000005D050700560508004E05070047050783
:1014F000004005080038050700310507002A0507E8
:1015000000230507001C050600160507000F050748
:10151000000805060002050700FB040600F50407A5
:1015200000EE040600E8040600E2040700DB0406FF
:1015300000D5040600CF040600C9040600C3040653
:1015400000BD040600B7040600B1040500AC0406A3
:1015500000A6040600A00405009B040600950405EF
:1015600000900406008A0405008504050080040636
:10157000007A04050075040500700405006B04057D
:101580000066040500610405005C040500570405BD
:1015900000520405004D04050048040500430405FD
:1015A000003E0404003A040500350405003004043C
:1015B000002C04050027040400230405001E040475
:1015C000001A04040016040500110404000D0404AC
:1015D00000090405000404040000040400FC0304E2
:1015E00000F8030400F4030400F0030400EC030417
:1015F00000E8030400E4030400E0030400DC030447
:1016000000D8030400D4030400D0030400CC030476
:1016100000C8030300C503030024F404D9201BC43D
:101620000C5C0E9804C4095F0265077101F405F9AA
:1016300000FB04B30048048700C103690058035548
:101640000003034500BE023A008402310053022A1F
:10165000002902250004022000E4011C00C8011931
:1016600000AF0117009801140084011300710110EC
:10167000006101100051010E0043010D0036010B05
:10168000002B010B0020010B00150109000C0109C2
:101690000003010800FB000800F3000800EB00074E
:1016A00000E4000600DE000600D8000600D20006B6
:1016B00000CC000500C7000500C2000500BD000405
:1016C00000B9000400B5000400B1000400AD00043E
:1016D00000A9000400A5000300A20003009F00046D
:1016E000009B000300980003009500020093000394
:1016F00000900003008D0002008B000300880002B0
:10170000008600020084000300810002007F0002C6
:10171000007D0002007B00020079000200770001DA
:1017200000760002007400020072000100710002E5
:10173000006F0002006D0001006C0002006A0001F1
:1017400000690002006700010066000100650001F9
:1017500000640002006200010061000100600001FD
:10176000005F0002005D0001005C0001005B000101
:10177000005A000100590001005800010057000103
:101780000056000100550001005400010053000004
:1017900000530001005200010051000100500001FF
:1017A000004F0001004E0000004E0001004D0001FE
:1017B000004C0001004B0000004B0001004A0001FA
:1017C00000490001004800000048000100470001F6
:1017D00000460000004600010045000000450001F1
:1017E00000440001004300000043000100420000EB
:1017F00000420001004100000041000100400001E2
:10180000003F0000003F0001003E0000003E0001DC
:10181000003D0000003D0001003C0000003C0000D5
:10182000003C0001003B0000003B0001003A0000CA
:10183000003A0001003900000039000100380000C2
:1018400000380000003800010037000000370001B8
:1018500000360000003600000036000100350000B0
:1018600000350000003500010034000000340000A5
:101870000034000100330000003300000033000199
:101880000032000000320000003200010031000090
:101890000031000000310001003000000030000085
:1018A00000300001002F0000002F0000002F00007A
:1018B000002F0001002E0000002E0000002E00016D
:1018C000002D0000002D0000002D0000002D000163
:1018D000002C0000002C0000002C0000002C000157
:1018E000002B0000002B0000002B0000002B00014B
:1018F000002A0000002A0000002A0000002A00013F
:101900000029000000290000002900000029000033
:101910000029000100280000002800000028000025
:101920000028000000280001002700000027000018
:10193000002700000027000000270001002600000B
:1019400000260000002600000026000000260001FE
:1019500000250000002500000025000000250000F3
:1019600000250000002500010024000000240000E4
:1019700000240000002400000024000100230000D7
:1019800000230000002300000023000000230000CB
:1019900000230000002300010022000000220000BC
:1019A00000220000002200000022000000220001AE
:1019B00000210000002100000021000000210000A3
:1019C0000021000000210000002100010020000093
:1019D0000020000000200000002000000020000087
:1019E000002000000020000000200001001F000077
:1019F000001F0000001F0000001F0000001F00006B
:101A0000001F0000001F0001001E0000001E00005B
:101A1000001E0000001E000000043700001E290008
:101A200000511B00005810000010090000CC0400F9
:101A30000078020000410100006265640A002C2069
:101A400073797374656D2073746F70706564212091
:101A50004865617465725F49443A200042656420BC
:101A600068656174696E67206661696C65640048C9
:101A7000656174696E67206661696C6564004531F3
:101A80002048656174696E67206661696C656400F1
:101A900048656174696E67206661696C65640045BC
:101AA00078747275646500526573756D6500000029
:101AB0002100240027002A002D00300033000101FE
:101AC0000000040107010A0100000A0B02090C0DC5
:101AD0000E080703040100000000000000000000E1
:101AE00000000000000000000000000000000000F6
:101AF00000000000121110000000000000000000B3
:101B000000000000000000000000000000000000D5
:101B10000000000000000000000000000000556E02
:101B20006B6E6F776E20636F6D6D616E643A20220D
:101B30000050726F62696E67206661696C65640A45
:101B400000205A3A200020593A200042656420586B
:101B50003A20002066697273740A005A00590058CE
:101B600000486F6D65200053442063617264206FEC
:101B70006B0A006F70656E526F6F74206661696CDE
:101B800065640A00766F6C756D652E696E697420E8
:101B90006661696C65640A00534420696E6974204B
:101BA0006661696C0A00526573656E643A20006F65
:101BB0006B0020746F6F206C6F6E67206578747295
:101BC0007573696F6E2070726576656E7465640AF0
:101BD0000020636F6C6420657874727573696F6E32
:101BE0002070726576656E7465640A00627573793B
:101BF0003A2070617573656420666F7220696E703B
:101C000075740A00627573793A2070617573656442
:101C100020666F7220757365720A00627573793A77
:101C20002070726F63657373696E670A004B494C6D
:101C30004C45442E20004B494C4C20636175736524
:101C400064206279204B494C4C20627574746F6E2D
:101C50002F70696E0A004B494C4C45442E20004BB6
:101C6000494C4C2063617573656420627920746F00
:101C70006F206D75636820696E6163746976652095
:101C800074696D65202D2063757272656E742063B2
:101C90006F6D6D616E643A20004D363030004265E4
:101CA00064204C6576656C696E6720004661696CDE
:101CB000656420746F20656E61626C6520426564A6
:101CC000204C6576656C696E670A00546F6F2066FC
:101CD00061722066726F6D207265666572656E63F3
:101CE0006520706F696E740A000A202020205761F9
:101CF000697420666F722066696C616D656E742010
:101D0000756E6C6F61640020202020205461726722
:101D100065742074656D706572747572650A202033
:101D2000202020546F6F206C6F7720666F720A201E
:101D30002020202066696C616D656E7420756E6C64
:101D40006F6164000A20546F6F20636F6C642066BB
:101D50006F722066696C616D656E74206F7065725C
:101D60006174696F6E00486F74656E6420746F6F84
:101D700020636F6C640A00496E7365727420666933
:101D80006C616D656E7420616E6420707265737332
:101D900020627574746F6E0A000A202020202020B3
:101DA00020496E736572742066696C616D656E742E
:101DB00020616E640A202020207072657373206297
:101DC0007574746F6E20746F20636F6E74696E75B6
:101DD000652E2E2E00507265737320627574746FB9
:101DE0006E20746F2068656174206E6F7A7A6C65FE
:101DF0000A000A20202020546865206E6F7A7A6CD1
:101E0000652068617320636F6F6C20646F776E204C
:101E10000A707265737320627574746F6E20746FCC
:101E20002072656865617420746865206E6F7A7AC7
:101E30006C652E00496E736572742066696C616D05
:101E4000656E7420616E64207072657373206275B4
:101E500074746F6E20286F72204D313038290A005B
:101E60000A20202020202020496E7365727420668D
:101E7000696C616D656E7420616E640A202020209B
:101E8000707265737320627574746F6E20746F2046
:101E9000636F6E74696E75652E2E2E004348414E39
:101EA0004745204F5054494F4E533A000A202020B6
:101EB000205761697420666F722066696C616D6578
:101EC0006E742070757267652E000A2020202057DE
:101ED00061697420666F722066696C616D656E74ED
:101EE000206C6F61642E00496E73657274206669A0
:101EF0006C616D656E7420616E64207072657373C1
:101F000020627574746F6E20286F72204D313038E6
:101F1000290A00496E736572742066696C616D658B
:101F20006E7420616E6420707265737320627574C4
:101F3000746F6E20746F20636F6E74696E75652E9A
:101F40002E2E00202020202054617267657420749A
:101F5000656D706572747572650A202020202054AA
:101F60006F6F206C6F7720666F720A202020202010
:101F700066696C616D656E74206C6F6164000A2027
:101F800020205761697420666F72207072696E74C8
:101F900020746F20726573756D652E0020202020DF
:101FA0002020202046696C616D656E742072756E0C
:101FB0006F7574210A5761697420666F722073749B
:101FC000617274206F662066696C616D656E742045
:101FD0006368616E67652E0020573A0020573A000B
:101FE000205A3A0020593A0020436F756E742058E9
:101FF0003A0020453A00205A3A0020593A00583A0F
:10200000003A004361703A00205A002059005800FD
:1020100020204D61783A2000205A002059005800B5
:1020200020204D696E3A20004F6E20004F666600FA
:10203000536F667420656E6473746F70733A20001A
:1020400020643A0020693A0020703A00496E7661B7
:102050006C69642065787472756465720A00236423
:102060006566696E652044454641554C545F4B6436
:10207000200023646566696E652044454641554CE1
:10208000545F4B69200023646566696E6520444592
:102090004641554C545F4B702000504944204175D7
:1020A000746F74756E652066696E69736865642106
:1020B0002050757420746865206C617374204B70B7
:1020C0002C204B6920616E64204B6420636F6E731B
:1020D00074616E74732066726F6D2062656C6F77C9
:1020E00020696E746F20436F6E66696775726174E4
:1020F000696F6E2E680A00504944204175746F74F0
:10210000756E65206661696C6564212074696D6512
:102110006F75740A00453120544845524D414C209A
:1021200052554E4157415900546865726D616C209B
:1021300052756E6177617900453120486561746937
:102140006E67206661696C65640048656174696EDC
:1021500067206661696C656400504944204175746C
:102160006F74756E65206661696C656421205465C5
:102170006D706572617475726520746F6F20686927
:1021800067680A00204B643A2000204B693A20001F
:10219000204B703A20000A20436C617373696320FE
:1021A000504944200A002054753A2000204B753ACB
:1021B0002000206D61783A2000206D696E3A200081
:1021C00020643A200020626961733A20005049443B
:1021D000204175746F74756E65206661696C656405
:1021E0002120426164206578747275646572206E86
:1021F000756D6265720A00504944204175746F74B0
:10220000756E652073746172740A0048617264634C
:102210006F6465642044656661756C7420536574F1
:1022200074696E6773204C6F616465640A00B80B53
:102230000000B80B00006400000010270000000040
:102240009643000096430000A0400000C8410000F3
:10225000C8420000C8420000C8430000BA42202023
:102260004D393036003A0A0020286D6D29002020B3
:102270004D3931340020204D3630332000205500B8
:102280004C0046696C616D656E74206C6F61642FE3
:10229000756E6C6F6164206C656E677468733A0A62
:1022A0000020590020580053656E736F726C65737F
:1022B0007320686F6D696E67207468726573686FEC
:1022C0006C643A0A00205430204500205A002059FE
:1022D00000205800537465707065722064726976CE
:1022E00065722063757272656E743A0A0020204D23
:1022F000383531205A005A2D50726F6265204F6672
:10230000667365740020440020490020204D33305E
:10231000312050005049442073657474696E6773AE
:102320003A0A0020460020420020480020204D317B
:1023300034352053004D6174657269616C206865A5
:102340006174757020706172616D65746572733A45
:102350000A00205A00204A00202047323920572006
:10236000490020204D3432302053004175746F20D5
:10237000426564204C6576656C696E673A0A002098
:102380005A0020590020204D323036205800486F26
:102390006D65206F66667365743A0A0020450020FB
:1023A0005A002059002058002054002053002020BB
:1023B0004D32303520420020453C6D61785F655FCD
:1023C0006A65726B3E0020583C6D61785F785F6A89
:1023D00065726B3E20593C6D61785F795F6A65720A
:1023E0006B3E205A3C6D61785F7A5F6A65726B3E26
:1023F00000416476616E6365643A20423C6D696EAB
:102400005F7365676D656E745F74696D655F757325
:102410003E20533C6D696E5F6665656472617465EC
:102420003E20543C6D696E5F74726176656C5F66C8
:10243000656564726174653E00205400205200207E
:10244000204D323034205000416363656C65726109
:1024500074696F6E2028756E6974732F7332293A10
:1024600020503C7072696E745F616363656C3E20DE
:10247000523C726574726163745F616363656C3E44
:1024800020543C74726176656C5F616363656C3E79
:102490000A00204500205A0020590020204D3230EB
:1024A000312058004D6178696D756D204163636519
:1024B0006C65726174696F6E2028756E6974732F14
:1024C0007332293A0A00204500205A002059002082
:1024D000204D3230332058004D6178696D756D2084
:1024E0006665656472617465732028756E697473BE
:1024F0002F73293A0A00204500205A002059002055
:10250000204D393220580053746570732070657205
:1025100020756E69743A0A0020204D323030204414
:10252000300A0020204D32303020440020446973AE
:1025300061626C65640A0046696C616D656E742049
:1025400073657474696E67733A0020204D313439B5
:102550002043203B20556E69747320696E204365CB
:102560006C736975730A00202047323120202020C7
:102570003B005072696E7465722068616C746564AA
:102580002E206B696C6C28292063616C6C6564215A
:102590000A00206472697665722063757272656ED6
:1025A000743A2000000020C00000A0C0000000001D
:1025B0005761726E696E673A20486F6D696E672069
:1025C00042756D702044697669736F72203C2031CA
:1025D0000A000202040000A0400000A04000000029
:1025E00040000048430000484300004843FFFFFF0D
:1025F0004D33310053442072656164206572726FFF
:10260000720A00446F6E65207072696E74696E673D
:102610002066696C650A004B494C4C45442E2000ED
:102620005072696E7465722073746F707065642087
:1026300064756520746F206572726F72732E204608
:10264000697820746865206572726F7220616E64AB
:1026500020757365204D39393920746F2072657388
:10266000746172742E202854656D70657261747582
:1026700072652069732072657365742E20536574CA
:10268000206974206166746572207265737461726A
:1026900074696E67290A004E6F20436865636B7327
:1026A000756D2077697468206C696E65206E756D34
:1026B0006265722C204C617374204C696E653A20FF
:1026C000004E6F20436865636B73756D2077697486
:1026D00068206C696E65206E756D6265722C204C89
:1026E000617374204C696E653A2000636865636BA2
:1026F00073756D206D69736D617463682C204C6116
:102700007374204C696E653A20004C696E65204EEA
:10271000756D626572206973206E6F74204C6173F1
:1027200074204C696E65204E756D6265722B312C7C
:10273000204C617374204C696E653A20004D313134
:1027400030000A202048656174696E67206E6F7AD8
:102750007A6C652C506C6561736520776169742EA5
:102760002E2E00486F74656E6420746F6F20636F47
:102770006C640A006F70656E206661696C65642C1C
:102780002046696C653A20004572726F722077723C
:102790006974696E6720746F20454550524F4D2112
:1027A0000A00454550524F4D206461746173697A47
:1027B00065206572726F722E0A00290A0020627904
:1027C0007465733B20637263200053657474696E93
:1027D00067732053746F726564202800290A0020F3
:1027E00062797465733B2063726320002073746F99
:1027F0007265642073657474696E677320726574A2
:10280000726965766564202800202863616C6375B1
:102810006C6174656429210A0020213D2000454532
:1028200050524F4D20435243206D69736D61746364
:1028300068202D202873746F72656429200020534E
:10284000697A653A2000496E6465783A2000204D27
:1028500061726C696E3D563535290A002845455030
:10286000524F4D3D00454550524F4D207665727395
:10287000696F6E206D69736D6174636820006669AD
:102880006C616D656E743A20007A5F6D696E3A20F6
:1028900000795F6D696E3A2000785F6D696E3A204D
:1028A000005265706F7274696E6720656E64737430
:1028B0006F70207374617475730A004D3530300089
:1028C0000000484200004842000080400000000034
:1028D000B1DF5DE111241FBECFEFD1E2DEBFCDBF7E
:1028E00000E00CBF13E0A0E0B2E0E0E6F0EE01E0B3
:1028F0000BBF02C007900D92A43CB107D9F72DE1A0
:10290000A4ECB3E001C01D92A333B207E1F714E1D8
:10291000C9E6D4E100E006C021970109802FFE013D
:102920000E945EEFC836D10780E00807A9F70E9431
:10293000AFD50C941FF00C9400002F923F924F9251
:102940005F926F927F928F929F92AF92BF92CF923F
:10295000DF92EF92FF920F931F93CF93DF93CDB748
:10296000DEB7CB56D1090FB6F894DEBF0FBECDBF90
:1029700021E0209371168091041D8D3411F40C9484
:102980007D1D843511F40C948E2A873411F00C943B
:10299000DA2A2090021D3090031D3CE123163104F9
:1029A00009F458C6CCF454E0251631044CF482E006
:1029B000281631040CF03DC037FE34C00C94791D4C
:1029C00094E02916310409F4E3C5ABE12A16310479
:1029D00009F414C60C94791DBAE22B16310409F4DB
:1029E0002EC764F4FDE12F16310409F44FC62EE121
:1029F0002216310409F44EC60C94791D3BE52316CA
:102A0000310409F4F4C74CE52416310409F4F3C782
:102A10005AE52516310411F00C94791D1092C80363
:102A20000C94DC2A8091000281110C94E12A0C9410
:102A3000DC2A80910002882311F40C94DC2A0E9485
:102A4000844582E50E94103F882309F44CC10E940E
:102A5000943E4B015C0120E030E0A9010E94ACE50E
:102A6000882309F470C180912D1490912E14A091A7
:102A70002F14B091301488AF99AFAAAFBBAF20919B
:102A800031143091321440913314509134142CAFDE
:102A90003DAF4EAF5FAF8091271790912817A0915F
:102AA0002917B0912A172C968CAF9DAFAEAFBFAF50
:102AB0002C9720912B1730912C1740912D17509166
:102AC0002E1728962CAF3DAF4EAF5FAF28979C01D5
:102AD000AD0168AD79AD8AAD9BAD0E94ACE58111C9
:102AE0000FC028962CAD3DAD4EAD5FAD28976CADB7
:102AF0007DAD8EAD9FAD0E94ACE5882309F423C166
:102B000011E032E02316310409F010E020E030E05B
:102B1000A901C501B4010E94ACE5881F8827881F60
:102B2000181759F080E090E0A0E8BFEB64968CAFF6
:102B30009DAFAEAFBFAF64970AC020E030E040E881
:102B40005FE364962CAF3DAF4EAF5FAF649728ADA7
:102B500039AD4AAD5BAD2C966CAD7DAD8EAD9FAD04
:102B60002C970E9454EC60966CAF7DAF8EAF9FAFF8
:102B700060972CAD3DAD4EAD5FAD28966CAD7DAD93
:102B80008EAD9FAD28970E9454EC6B017C0160963E
:102B90002CAD3DAD4EAD5FAD6097CA01B9010E944D
:102BA00011E62B013C01A7019601C701B6010E9465
:102BB00011E69B01AC01C301B2010E9455EC0E94D9
:102BC000C1EE24966CAF7DAF8EAF9FAF249720E00F
:102BD00030E040E05FE30E9411E62B013C01A501DB
:102BE0009401C501B4010E9411E64B015C01A301EF
:102BF0009201C301B2010E9411E69B01AC01C50123
:102C0000B4010E9454EC0E94C1EE64962CAD3DAD1F
:102C10004EAD5FAD64970E9411E64B015C01C701A8
:102C2000B601905824962CAD3DAD4EAD5FAD2497C6
:102C30000E9431EDA50194010E9411E66B017C0117
:102C40002C962CAD3DAD4EAD5FAD2C9768AD79ADFA
:102C50008AAD9BAD0E9455EC20E030E040E05FE3A0
:102C60000E9411E69B01AC01C701B6010E9455EC20
:102C700028AD39AD4AAD5BAD0E9454EC6B017C01CF
:102C800028962CAD3DAD4EAD5FAD28976CAD7DADBA
:102C90008EAD9FAD0E9455EC20E030E040E05FE358
:102CA0000E9411E62B013C0124962CAD3DAD4EADAA
:102CB0005FAD249760966CAD7DAD8EAD9FAD609796
:102CC0000E9431EDA50194010E9411E69B01AC0127
:102CD000C301B2010E9455EC2CAD3DAD4EAD5FADD0
:102CE0000E9454EC14C089E40E94103F882329F00C
:102CF0000E94943E6B017C0103C0C12CD12C760153
:102D00008AE40E94103F882309F10E94943E2C9689
:102D10006CAF7DAF8EAF9FAF2C9720E030E0A90164
:102D2000C701B6010E94ACE581111FC020E030E070
:102D3000A9012C966CAD7DAD8EAD9FAD2C970E94F8
:102D4000ACE5811112C0E4E2F0E10EC420E030E015
:102D5000A901C701B6010E94ACE58823A1F32C9616
:102D60001CAE1DAE1EAE1FAE2C97D701C601B058CB
:102D700088AF99AFAAAFBBAF2C962CAD3DAD4EAD91
:102D80005FAD2C9750582CAF3DAF4EAF5FAF9C015D
:102D9000AD01BC01CD010E9411E64B015C012CADDF
:102DA0003DAD4EAD5FADCA01B9010E9411E69B0178
:102DB000AC01C501B4010E9455EC0E94C1EEA09681
:102DC0006CAF7DAF8EAF9FAFA09780912D14909187
:102DD0002E14A0912F14B091301428968CAF9DAF73
:102DE000AEAFBFAF2897A7019601BC01CD010E94ED
:102DF00055EC64966CAF7DAF8EAF9FAF649720911A
:102E0000311430913214409133145091341460963F
:102E10002CAF3DAF4EAF5FAF60972C962CAD3DAD64
:102E20004EAD5FAD2C9760966CAD7DAD8EAD9FAD18
:102E300060970E9455ECA4966CAF7DAF8EAF9FAFAC
:102E4000A4978091271790912817A0912917B091E6
:102E50002A1768968CAF9DAFAEAFBFAF68976496E8
:102E60002CAD3DAD4EAD5FAD6497BC01CD010E9470
:102E700054EC6B017C0120912B1730912C17409161
:102E80002D1750912E176C962CAF3DAF4EAF5FAF04
:102E90006C97A4962CAD3DAD4EAD5FADA4976C96EE
:102EA0006CAD7DAD8EAD9FAD6C970E9454EC4B0127
:102EB0005C018091351490913614A0913714B09133
:102EC0003814A8968CAF9DAFAEAFBFAFA8979C014A
:102ED000AD0160912F17709130178091311790914B
:102EE00032170E9454EC24966CAF7DAF8EAF9FAF2B
:102EF0002497A701960168AD79AD8AAD9BAD0E947C
:102F000011E62B013C01A50194016CAD7DAD8EADA8
:102F10009FAD0E9411E69B01AC01C301B2010E946A
:102F200055EC2B013C01A501940168AD79AD8AAD4A
:102F30009BAD0E9411E64B015C01A70196016CADAF
:102F40007DAD8EAD9FAD0E9411E69B01AC01C50128
:102F5000B4010E9454ECA30192010E94C8EC6B01E1
:102F60007C0120E030E0A9010E94ACE587FF0AC0A7
:102F70002BED3FE049EC50E4C701B6010E9455EC4F
:102F80006B017C0192E02916310451F42BED3FE0F6
:102F900049EC50E4C701B6010E9454EC6B017C017E
:102FA00020E030E0A901C701B6010E94ACE5811123
:102FB00028C068962CAD3DAD4EAD5FAD68972896A4
:102FC0006CAD7DAD8EAD9FAD28970E94ACE58111B3
:102FD00018C06C962CAD3DAD4EAD5FAD6C97609654
:102FE0006CAD7DAD8EAD9FAD60970E94ACE581115B
:102FF00008C0EBEDCE2EEFE0DE2EE9ECEE2EE0E4A5
:10300000FE2EA7019601A0966CAD7DAD8EAD9FAD55
:10301000A0970E9411E64B015C0120E030E0A9017D
:1030200024966CAD7DAD8EAD9FAD24970E94ACE52E
:103030008823E9F0A5019401C501B4010E9411E6BD
:103040004B015C0124962CAD3DAD4EAD5FAD249798
:10305000CA01B9010E9411E69B01AC01C501B4018E
:103060000E9455EC0E94C1EE4B015C010DC020E0B6
:1030700030E0A901C501B4010E947BEE87FF04C0C6
:10308000B7FAB094B7F8B0942FE632E143E85AE3C8
:10309000C501B4010E94ACE587FF02C00C94DC2A94
:1030A000C501B4010E94CAED0E949EED2E967FAF2D
:1030B0006EAF2E97DB01AB2B31F4E1E0F0E02E9602
:1030C000FFAFEEAF2E974090391450903A146090B5
:1030D0003B1470903C142E962EAD3FAD2E97B90147
:1030E00080E090E00E94B0E54B015C019B01AC01E7
:1030F000C701B6010E9431ED28966CAF7DAF8EAF4F
:103100009FAF2897A501940124966CAD7DAD8EAD3F
:103110009FAD24970E9431EDA0966CAF7DAF8EAF2E
:103120009FAFA097A301920160913317709134175C
:1031300080913517909136170E9454ECA5019401A7
:103140000E9431EDAC966CAF7DAF8EAF9FAFAC9768
:1031500028962CAD3DAD4EAD5FAD2897CA01B901A3
:103160000E9411E620E030E040E05FE30E9411E6BB
:103170009B01AC0160E070E080E89FE30E9454ECAA
:1031800068966CAF7DAF8EAF9FAF6897A8968CADF9
:103190009DADAEADBFADA89789879A87AB87BC8739
:1031A0004D865E866F86788A609103027091040274
:1031B000072E000C880B990B0E94B2E52091320279
:1031C0003091330240913402509135020E9411E651
:1031D0002AE037ED43E25CE30E9411E66CAB7DAB85
:1031E0008EAB9FAB0E949CD39B01AC0128533F4FF9
:1031F0004F4F5F4F6C962CAF3DAF4EAF5FAF6C97AC
:1032000048AC59AC6AAC7BAC22242394312C39E114
:1032100021963FAF21972E964EAD5FAD2E9742156A
:10322000530509F44DC10E94CA780E949CD3DC0169
:10323000CB016C962CAD3DAD4EAD5FAD6C97821B56
:10324000930BA40BB50BB7FD11C00E949CD39B013F
:10325000AC0128533F4F4F4F5F4F6C962CAF3DAFA3
:103260004EAF5FAF6C9780E00E94049121963FAD16
:103270002197315021963FAF2197332309F445C060
:103280002CAD3DAD4EAD5FAD68966CAD7DAD8EADF8
:103290009FAD68970E9411E66B017C019201A3012A
:1032A00028966CAD7DAD8EAD9FAD28970E9411E63E
:1032B000A70196010E9455EC7B018C019201A301AC
:1032C00068966CAD7DAD8EAD9FAD68970E9411E69E
:1032D0004B015C012CAD3DAD4EAD5FAD28966CADA4
:1032E0007DAD8EAD9FAD28970E9411E69B01AC018C
:1032F000C501B4010E9454EC2B013C01C701D80167
:103300008CAF9DAFAEAFBFAF55C0B10180E090E0D4
:103310000E94B0E528962CAD3DAD4EAD5FAD28972F
:103320000E9411E64B015C010E942EED6B017C01B5
:10333000C501B4010E94B7EE4B015C01A7019601E3
:1033400068AD79AD8AAD9BAD0E9411E62B013C01C1
:103350002C962CAD3DAD4EAD5FAD2C97C501B401A3
:103360000E9411E6A30192010E9455EC2B013C0141
:10337000A501940168AD79AD8AAD9BAD0E9411E6BF
:103380004B015C012C962CAD3DAD4EAD5FAD2C9745
:10339000C701B6010E9411E69B01AC01C501B40151
:1033A0000E9454EC6CAF7DAF8EAF9FAF49E1219688
:1033B0004FAF21979201A30164966CAD7DAD8EADA8
:1033C0009FAD64970E9455EC69837A838B839C83BD
:1033D0002CAD3DAD4EAD5FADA4966CAD7DAD8EAD6B
:1033E0009FADA4970E9455EC6D837E838F83988751
:1033F000A0962CAD3DAD4EAD5FADA09769857A85A9
:103400008B859C850E9455EC69877A878B879C8782
:10341000AC962CAD3DAD4EAD5FADAC976D857E8568
:103420008F8598890E9455EC6D877E878F87988B52
:1034300080915D02882321F0CE0101960E9448B55B
:10344000E0900F1D1CA61DA61EA61FA689819A81AD
:10345000AB81BC8188A399A3AAA3BBA38D819E81C4
:10346000AF81B8858CA39DA3AEA3BFA389859A85A0
:10347000AB85BC8588A799A7AAA7BBA7AE01485D65
:103480005F4FBE016C5D7F4FCE0180960E946C63E2
:10349000CE018C966C018E010C5C1F4F9E01235F48
:1034A0003F4FAE01485D5F4FBE016C5D7F4F0C9793
:1034B0000E941355882321F09FEF291A390AABCEB9
:1034C000E0900F1D18AA19AA1AAA1BAA8091271703
:1034D00090912817A0912917B0912A1788A399A332
:1034E000AAA3BBA380912B1790912C17A0912D1705
:1034F000B0912E178CA39DA3AEA3BFA380912F17CD
:1035000090913017A0913117B091321788A799A7E1
:10351000AAA7BBA7AE01485D5F4FBE016C5D7F4FA0
:10352000CE0180960E946C63DE01D0966D018E0103
:103530000C5C1F4F23E337E1AE01485D5F4FBE01D6
:103540006C5D7F4FCE0180960E94135580E1E7E2CB
:10355000F7E1ADE2B4E101900D928A95E1F70C94A8
:10356000DC2A0E942040F80184918F010F5F1F4FD9
:103570008111F7CFE1E3F4E084918F010F5F1F4FDA
:10358000882311F40C94DC2A0E942040F801F4CF27
:1035900080E50E94103F882329F00E94543E6B0171
:1035A0007C0103C0C12CD12C760183E50E94103F21
:1035B000882361F00E94943E20E030E04AE754E422
:1035C0000E9411E60E949EED6B017C010E94D76271
:1035D0000E949CD3C60ED71EE81EF91E0E949CD3E3
:1035E000DC01CB018C199D09AE09BF09B7FD02C0F2
:1035F0000C94DC2A80E00E940491F0CF0E94CA8BD8
:1036000081110C94DC2A80E090E0A0E4B0E489838E
:103610009A83AB83BC838D839E83AF83B88780E01E
:1036200090E0A0EAB1E489879A87AB87BC8780E500
:103630000E94103F882319F00E94643E01C060E0A0
:1036400068A3BE016F5F7F4FCE0180960E9447CF77
:103650000C94DC2A80911C148770873011F00C9434
:10366000E62A8FE40E94103F882341F00E94853EA5
:10367000882311F40C94E62A0C94DC2A8FE40E942F
:10368000C73E81110C94DC2A0C94E62A0E940B4957
:103690000C94DC2AC0902D14D0902E14E0902F149E
:1036A000F090301488E50E94103F811109C020E09D
:1036B00030E040E251E4C701B6010E9455EC02C07F
:1036C0000E94943E68A379A38AA39BA3C09031145F
:1036D000D0903214E0903314F090341489E50E94B5
:1036E000103F811109C020E030E040E251E4C70101
:1036F000B6010E9455EC02C00E94943E9B01AC01B1
:1037000069837A838B839C8368A179A18AA19BA119
:103710000E9419B7882311F40C94DC2A80E00E94DF
:10372000EC470E946F3C85E40E94103F882321F003
:103730000E94853E182F04C085E40E94C73E11E018
:1037400086E50E94103F882321F00E94643E262FC8
:1037500001C021E0412FBE016F5F7F4FCE018096F7
:103760000E944A8C6B017C019B01AC010E9403EF1B
:1037700081115FC088A099A0AAA0BBA020E030E082
:10378000A901C501B4010E94ACE587FF05C027E18E
:1037900037EB41E558EB04C027E137EB41E558E34F
:1037A000C501B4010E9455ECAB01BC0181E594E078
:1037B0000E9420CA89809A80AB80BC8020E030E0E3
:1037C000A901C501B4010E94ACE587FF05C027E14E
:1037D00037EB41E558EB04C027E137EB41E558E30F
:1037E000C501B4010E9455ECAB01BC018CE494E02E
:1037F0000E9420CA20E030E0A901C701B6010E9462
:10380000ACE587FF05C027E137EB41E558EB04C085
:1038100027E137EB41E558E3C701B6010E9455ECBB
:10382000AB01BC0187E494E00E9420CA8AE00E94B8
:1038300020400E94563C0E9421A90C94DC2A8091D1
:103840000002882311F40C94DC2A89E40E94103FC2
:10385000082F882321F00E94643EE62E01C0E12C4F
:103860008AE40E94103F182F882321F00E94643EB2
:10387000F62E01C0F12C002319F0B2E0BE1528F09D
:10388000112389F0E2E0EF1570F4E9E5F4E08491AA
:103890008F010F5F1F4F882311F40C94DC2A0E94C4
:1038A0002040F801F4CF0E940C400023F1F0209159
:1038B000EB163091EC164E2D4203B001439F700D74
:1038C000112480919F179091A017680F791F072EE0
:1038D000000C880B990B0E94B2E560932717709338
:1038E00028178093291790932A171123F1F020911C
:1038F000ED163091EE165F2D5203B001539F700DFF
:1039000011248091A1179091A217680F791F072E9B
:10391000000C880B990B0E94B2E560932B177093F3
:103920002C1780932D1790932E1780E50E94103F3F
:103930008823E9F00E94853E8823A9F10023D9F06D
:1039400020E030E040E251E46091271770912817A1
:103950008091291790912A170E9454EC60932717A1
:10396000709328178093291790932A1704C080E535
:103970000E94C73EE1CF1123B1F020E030E040E2E9
:1039800051E460912B1770912C1780912D17909115
:103990002E170E9454EC60932B1770932C17809372
:1039A0002D1790932E1786E40E94103F8823D9F09C
:1039B0000E94943E6B017C0120E030E0A9010E944E
:1039C0007BEE181684F420E030E040E752E4C701B3
:1039D000B6010E9431ED60933202709333028093FE
:1039E0003402909335020E943C950C94DC2A20937B
:1039F000C8030C94DC2A3EE7232E32E0332E4BE141
:103A0000E42E47E1F42E8DE294E199AF88AF5DE1B9
:103A1000C52E54E1D52E00E010E0D1018D911D019D
:103A20000E94103F882309F44BC00E94943E2B0152
:103A30003C01133049F0F6012081318142815381EC
:103A40000E9454EC2B013C01A8ADB9AD2D913D91E4
:103A50004D915C91C301B2010E9454EC4B015C0199
:103A60002DEB37E346E855EB0E947BEE87FD0AC05D
:103A70002DEB37E346E855E3C501B4010E94ACE500
:103A80001816F4F4133051F44092391450923A1449
:103A900060923B1470923C1401E012C0A5019401A5
:103AA000F70160817181828193810E9455ECD70179
:103AB0006D937D938D939C931397812F0E949C3DD2
:103AC0001F5FB4E0EB0EF11CE8ADF9AD3496F9AF31
:103AD000E8AFF4E0CF0ED11C143009F09ECF0023E4
:103AE00021F089E394E10E94808B0E9421A90C942B
:103AF000DC2A0E94CE8E0C94DC2A8091021D9091CB
:103B0000031D8737910509F47DC70CF0E2C08D34A1
:103B1000910509F495C40CF058C08931910509F458
:103B200051C31CF58431910509F4E5C17CF4813160
:103B3000910509F469C22CF4029708F4DFC10C94D2
:103B40008B2A429709F4F5C50C948B2A863191058E
:103B500009F4A0C20CF49AC28731910509F4A0C2FD
:103B6000489709F4B5C20C948B2A8E31910509F45B
:103B7000DFC384F48B31910509F438C30CF428C3F6
:103B80008C31910509F4CAC34D9711F40C94DC2AC9
:103B90000C948B2A8A32910509F41AC44CF48F31A3
:103BA000910509F4F0C3809709F4CDC20C948B2AD7
:103BB0008B34910509F440C48C34910511F00C94B8
:103BC0008B2A0E94BB7B0C94DC2A8B36910509F46E
:103BD00080C50CF043C08435910509F4AAC5E4F40E
:103BE0008135910509F48BC54CF48E34910511F0A3
:103BF0000C948B2A0E9479430C94DC2A823591051F
:103C000009F494C58335910511F00C948B2A81E059
:103C10008093C7030C94DC2A8836910509F414C4F8
:103C20009CF48535910509F4B3C58C35910511F0E7
:103C30000C948B2A1EE7C12E12E0D12E0EE4E02E4A
:103C400004E1F02E10E0BDC58936910509F4C3C426
:103C50008A36910509F418C50C948B2A8037910592
:103C600009F485C484F48D36910509F4F4C40CF488
:103C70007AC48E36910509F410C48F36910509F483
:103C80001FC40C948B2A8337910509F431C17CF44D
:103C90008137910509F473C48237910511F00C94B2
:103CA0008B2A0E94D7620E9421A90C94DC2A8537B6
:103CB000910511F40C94DC2A8637910511F00C94CF
:103CC0008B2A0091001D1091011D83E0D12C40E052
:103CD00058C6803931E0930711F40C94EC270CF0AE
:103CE00079C08D3C910509F49CC754F58E3B910534
:103CF00009F4C7C484F48937910509F48CC60CF41F
:103D000084C68C38910509F4A9C48B39910509F44E
:103D10007DC40C948B2A893C910509F4D1C634F4F6
:103D2000883C910509F47CC60C948B2A8B3C910548
:103D300009F4E6C68C3C910509F4FEC60C948B2A66
:103D4000823E910511F40C942D27FCF4833D9105DE
:103D500011F40C94AE267CF48E3C910511F00C9479
:103D60008B2AEEE7CE2EE2E0DE2EFDE6EF2EF9E026
:103D7000FF2E10E0DDC78C3D910509F4F2C78D3DA3
:103D8000910509F4FBC70C948B2A8E3251E09507FC
:103D900011F40C947F277CF48C32B1E09B0711F472
:103DA0000C9456278D32914011F00C948B2A0E946E
:103DB00069A70C94DC2A8F32F1E09F0711F40C9470
:103DC000D3278336914011F00C948B2AE4E2F0E182
:103DD0000C94D927883F31E0930711F40C94A02864
:103DE0000CF040C0853A51E0950711F40C94FB2784
:103DF000BCF48239B1E09B0711F40C94F52714F45C
:103E00000C94EF278A39F1E09F0709F4B4C3843A90
:103E1000914011F00C948B2A0E9485A10C94DC2A0D
:103E2000853F31E0930711F40C948E2874F48C3A9A
:103E300051E0950709F48FC7843F914011F00C942D
:103E40008B2A0E949BBB0C94DC2A863FB1E09B0727
:103E500011F40C949128873F914011F40C9494280C
:103E60000C948B2A8B38F3E09F0711F40C94DC2A16
:103E7000ECF48B3532E0930711F40C94C3284CF426
:103E80008835924011F00C948B2A0E940D9C0C9462
:103E9000DC2A8335A3E09A0711F40C944C298A3864
:103EA000934011F40C94B1290C948B2A8239E3E0ED
:103EB0009E0711F40C94272A7CF48F3823E0920794
:103EC00011F40C94122A8039934011F00C948B2A2F
:103ED0000E94749B0C94DC2A803A43E0940709F416
:103EE00045C2873E934011F40C94782A0C948B2A97
:103EF000E8EEF5E0E5C4E7E8F4E08AC00091001DD3
:103F00001091011D80E50E94103F882361F00E94FE
:103F1000543E6B017C01BB24B394672B682B692B47
:103F200031F4B12C04C0B12CC12CD12C760183E525
:103F30000E94103F882311F40C94682B0E94943E39
:103F400020E030E04AE754E40E9411E60E949EED32
:103F50006B017C01B1100BC0672B682B692B39F406
:103F60000115110521F0D8018C91811102C0B12CED
:103F700002C0BB24B3940E94D762BB20C1F0E4EE20
:103F8000FFE084915F01BFEFAB1ABB0A882321F0E9
:103F90000E942040F501F5CFF80181918F0188231F
:103FA00019F00E942040F8CF8AE00E94204083E070
:103FB0008093711681E080934C04C114D104E10414
:103FC000F104B1F00E949CD3C60ED71EE81EF91E64
:103FD0000E949CD3DC01CB018C199D09AE09BF095D
:103FE000B7FF0EC080914C0481110C946D2B08C05A
:103FF00080914C04882321F080E00E940491F8CF46
:1040000010924C040C94DC2A0E9437950C94DC2A04
:1040100084918F010F5F1F4F882321F00E94204061
:10402000F801F6CF1092A01284E390E10E94FD7295
:104030008BE1E4E3F0E1DE01159601900D928A95A3
:10404000E1F780913210909133109C838B838CEA3E
:1040500092E09A83898340E050E0BE016F5F7F4F1A
:1040600080E090E00E948D67CE0101960E949AB791
:10407000E8E7F4E084918F010F5F1F4F882311F46C
:104080000C94DC2A0E942040F801F4CF0E947D8F1E
:104090000C94DC2A10920410109205100C94DC2A67
:1040A0000E94E269E091001DF091011D808188234A
:1040B00029F0803209F410823196F8CF40E061E0B7
:1040C0008091001D9091011D0E94F76D0C94DC2AD7
:1040D00083E50E94103F882381F00E94643EAB017B
:1040E000BC0140939C1250939D1260939E1270935A
:1040F0009F128CEC91E10E946670809105108823DC
:1041000019F081E08093041084E50E94103F882319
:1041100009F454C00E94643E6B017C010E94A07BA4
:10412000C0923913D0923A13E0923B13F0923C13B1
:10413000CD28CE28CF2811F40C94DC2A81E080937E
:104140004D040C94DC2A8091041081110E94D762E6
:1041500080910510882311F40C94DC2A80E50E94DC
:10416000103F882309F4FEC00E94853E182F482F77
:1041700061E08091001D9091011D0E94F76D83E523
:104180000E94103F882381F00E94643EAB01BC0175
:1041900040939C1250939D1260939E1270939F12B5
:1041A0008CEC91E10E94667080910510882319F0D3
:1041B00081E08093041011110C94DC2A0E9470CAD3
:1041C0000C94DC2A109204100E94BB7B0C94DC2A15
:1041D00080910510882311F40C94DC2A83E50E9459
:1041E000103F81110C94722B0C94DC2A83E40E9402
:1041F000C73E882309F450C0E5ECF4E084918F01B8
:104200000F5F1F4F882321F00E942040F801F6CF56
:104210008091CF11811103C0E8E9F4E012C0BE0122
:104220006F5F7F4F8CEC91E10E94CA728E010F5F2D
:104230001F4FD8018D918D01882349F10E942040A4
:10424000F8CF84918F010F5F1F4F882301F10E94E7
:104250002040F801F6CF21EEC22E24E0D22EE12C30
:10426000F12C20E08091520B90E00E2C02C095952D
:1042700087950A94E2F780FD53C1EFEFEE1AFE0A2C
:10428000F2E0CF0ED11C35E0E316F10459F78AE0D5
:104290000E9420400C94DC2A80910510882339F07C
:1042A00080910410882319F0E2EAF4E003C0E4EB03
:1042B000F4E028C084918F010F5F1F4F882321F005
:1042C0000E942040F801F6CF60919C1270919D12DF
:1042D00080919E1290919F124AE00E94A4408FE22A
:1042E0000E942040609198127091991280919A12C8
:1042F00090919B124AE00E94A4408AE00E942040D4
:104300000C94DC2A84918F010F5F1F4F882311F4D6
:104310000C94DC2A0E942040F801F4CF40E060E0D9
:104320008091001D9091011D0E94F76D0C94DC2A74
:1043300080910510882311F40C94DC2A8CEC91E117
:104340000E9490728CEC91E10E94C2721092031054
:10435000109202108091001D9091011D0E945369DE
:104360000C94DC2A80E50E94C73E00CF8091001D9E
:104370009091011D21E02093031040E060E00E9435
:10438000F76D0C94DC2A0E946C7B68A379A38AA346
:104390009BA3BE016F5F7F4FCE0180960E941C3FA2
:1043A000E4EEFFE084918F010F5F1F4F882321F01F
:1043B0000E942040F801F6CFBE016F5F7F4F84ED71
:1043C00094E00E9455CA8AE00E9420400C94DC2AA6
:1043D00083E50E94103F882311F40C94DC2A0E948C
:1043E000743EE82E80E50E94103F882339F00E9439
:1043F000743E182F87FF03C00C94DC2A1DE089E46B
:104400000E94103F882341F00E94853E81110C9448
:10441000DA2BE2E0F7E00BC089E40E94C73EF6CF5A
:104420003196B7E0EF32FB0711F40C94DA2B84914C
:104430001813F6CF0C94AE2B0E9470CA0C94DC2A91
:104440000E94B7CA0C94DC2A88E690E00E940F41D3
:1044500081110C94DC2A8091520B83FF02C00C94D2
:10446000DC2A83E50E94103F882399F00E94943E45
:104470000E9499EDCB010E940E860E94943E20E09E
:1044800030E04AEA52E40E94ACE5181614F00E94AB
:10449000B7CA0E9437CB0C94DC2A8EE40E94103FEE
:1044A000882311F40C94DC2A0E94643E60939A0DD8
:1044B00070939B0D80939C0D90939D0D0C94DC2A22
:1044C00083E50E94C73E882359F083E50E94103F90
:1044D000882319F00E94743E01C080E08093520B43
:1044E000E4EEFFE084918F010F5F1F4F811103C045
:1044F000EFEEF4E004C00E942040F801F3CF849175
:104500008F010F5F1F4F882321F00E942040F80188
:10451000F6CF8091520B81119ECEEBEEF4E018C0E5
:10452000BB24B394B20E222319F08CE20E942040E7
:10453000F60185919491FC0184918F010F5F1F4FCB
:10454000882321F00E942040F801F6CF2B2D95CE34
:1045500084918F010F5F1F4F882309F498CE0E942A
:104560002040F801F5CF10921B020C94DC2A86EF54
:1045700094E00E94B6B70E9402A30C94DC2A83E563
:104580000E94103F811103C0E4EEFFE00DC00E94C5
:10459000743E8D3320F4809340020C94DC2A8CE32B
:1045A000809340020C94DC2A84918F010F5F1F4F8F
:1045B000882321F00E942040F801F6CF409140026C
:1045C00050E060E070E08FEF94E00E9403CA8AE060
:1045D0000E942040F1C789E690E00E940F418111BE
:1045E00011C0E6E0F5E084918F010F5F1F4F882333
:1045F00021F00E942040F801F6CF0E9428518AE065
:104600000E942040109271160C94FD2B83E50E94AD
:10461000103F882309F4D0C70E94743E182F8D33B1
:1046200008F01CE3109380160E949CD36B017C0160
:10463000212F30E0A8EEB3E00E9445ECC60ED71E55
:10464000E81EF91EC0927C16D0927D16E0927E166E
:10465000F0927F16B1C70E94A3ABAEC78091520BF8
:1046600083FF01C0A9C783E50E94103F882309F496
:10467000A3C70E94943E0E9499EDCB010E94FE3F89
:104680009BC70E940DAA98C780E50E94103F88230F
:1046900039F00E94743E182F833008F08DC701C096
:1046A00010E083E50E94103F882319F00E94643EC9
:1046B00002C06FEF70E0E12FF0E06F3F710510F086
:1046C0006FEF70E0EE0FFF1FE95FF44F71836083BF
:1046D00073C780E50E94103F882339F00E94643E32
:1046E0006330710508F068C702C060E070E0660FD3
:1046F000771FFB01E95FF44F118210825DC70E94B2
:1047000087540E9415631092080B1092070B1092A9
:104710000A0B1092090B10920C0B10920B0B68EE07
:1047200073E080E090E00E94EA8546C71092C703DC
:1047300043C783E50E94103F882399F00E94943E6E
:1047400020E030E04AE754E40E9411E60E949EED2A
:10475000609341027093420280934302909344021B
:104760002BC788E50E94C73E8111CDC789E50E940D
:10477000C73E8111C8C78AE50E94C73E8111C3C7E1
:1047800085E40E94C73E8111BEC70E94156314C70D
:1047900083E50E94C73E882309F40EC70E94943E19
:1047A00020E030E04AE754E40E9411E60E949EEDCA
:1047B0006093761670937716809378169093791697
:1047C000FBC6D6018D916D010E94C73E882309F476
:1047D0006DC0133009F063C00E94943E4B015C0130
:1047E00020E030E040EA51E40E94ACE587FF4EC093
:1047F000A501940160915A1470915B1480915C142E
:1048000090915D140E9431ED2B013C019B01AC01A4
:104810006091BC137091BD138091BE139091BF1332
:104820000E9411E66093BC137093BD138093BE1376
:104830009093BF13A30192016091F4137091F5134B
:104840008091F6139091F7130E9411E66093F41390
:104850007093F5138093F6139093F7136091B51747
:104860007091B6178091B7179091B8170E94B0E574
:10487000A30192010E9411E60E949EED6093B5177C
:104880007093B6178093B7179093B81780925A1405
:1048900090925B14A0925C14B0925D1407C00E94C9
:1048A000943EF70160837183828393831F5FF4E0FA
:1048B000EF0EF11C143009F084CF0E949CCC7CC612
:1048C00084918F010F5F1F4F882321F00E942040A9
:1048D000F801F6CF60E088ED95E00E94EAA861E07B
:1048E00081ED95E00E94EAA861E086EC95E00E94E7
:1048F000EAA861E086EB95E00E94EAA860E08DEA14
:1049000095E00E94EAA861E083EA95E00E94EAA8A7
:1049100061E089E995E00E94EAA861E081E995E01B
:104920000E94EAA861E083E895E00E94EAA860E0BE
:1049300085E795E00E94EAA860E086E695E00E949F
:10494000EAA860E088E595E00E94EAA860E082E4D9
:1049500095E00E94EAA860E081E395E00E94EAA861
:1049600060E08CE195E00E94EAA861E089E095E0D2
:104970000E94EAA821C6D8019C91292F2B7F2134BF
:1049800019F08150C1F717C011962C912133C9F746
:10499000913421F0953421F441E002C0DD24D39418
:1049A00098012E5F3F4F89012F5F3F4FF8019081A3
:1049B0009032C9F3E6CF442369F0E4EEFFE084913E
:1049C0007F012FEFE21AF20A882321F00E94204093
:1049D000F701F5CFDD2069F0EEEAF6E084917F0182
:1049E0003FEFE31AF30A882321F00E942040F701E9
:1049F000F5CFD8018D918D01882309F448CC0E9410
:104A00002040F7CF0E9457D0D7C581E080936D0436
:104A100080936C04D1C510926D0410926C04CCC5C7
:104A200088EC90E00E940F418111C6C584E40E9489
:104A3000C73E882309F441C00E94943E6B017C016B
:104A400011E020E030E0A9010E94ACE5811101C035
:104A500010E01093081420E030E0A901C701B6016E
:104A60000E94ACE5882349F10E94943EE091340B0A
:104A7000B4E0EB9FF0011124EC5FFB4E6083718387
:104A80008283938320E030E0A90160910414709147
:104A9000051480910614909107140E94ACE58111D1
:104AA0000CC080E090E0A0EEBFE3809304149093EC
:104AB0000514A0930614B09307140E940DCD7CC575
:104AC000BEE7EB2EB2E0FB2E08ED13E1F70181917A
:104AD0007F010E94C73E882351F00E94943E0E94AD
:104AE0009EEDD8016D937D938D939C9313970C5FEE
:104AF0001F4FB3E1083E1B0749F70E9467CB5CC517
:104B0000AEE7EA2EA2E0FA2E08EE13E1F70181915A
:104B10007F010E94C73E882341F00E94943ED80145
:104B20006D937D938D939C9313970C5F1F4FB3E10F
:104B3000083F1B0759F740C583E50E94103F8823B3
:104B4000A1F00E94943E6093D4137093D513809388
:104B5000D6139093D7136093CC137093CD13809397
:104B6000CE139093CF1310E001C011E080E50E94B6
:104B7000103F882359F00E94943E6093D4137093A1
:104B8000D5138093D6139093D71310E082E50E943B
:104B9000103F882359F00E94943E6093D013709385
:104BA000D1138093D2139093D31310E084E50E9425
:104BB000103F882359F00E94943E6093CC13709369
:104BC000CD138093CE139093CF13F6C4112309F421
:104BD000F3C44091D4135091D5136091D6137091C2
:104BE000D71388EB96E00E9420CA4091D0135091D1
:104BF000D1136091D2137091D31385EB96E00E948C
:104C000020CA4091CC135091CD136091CE13709176
:104C1000CF1382EB96E00E9420CA8AE00E942040D7
:104C2000CBC482E40E94C73E882351F00E94543EC8
:104C30006093C4137093C5138093C6139093C713E6
:104C400083E50E94C73E882351F00E94943E609302
:104C5000C8137093C9138093CA139093CB1384E540
:104C60000E94C73E882351F00E94943E6093C01377
:104C70007093C1138093C2139093C31388E50E946D
:104C8000C73E882351F00E94943E6093B013709306
:104C9000B1138093B2139093B31389E50E94C73E7A
:104CA000882351F00E94943E6093B4137093B5131F
:104CB0008093B6139093B7138AE50E94C73E88236A
:104CC000F1F00E94943E6093B8137093B9138093EF
:104CD000BA139093BB132DEC3CEC4CEC5DE30E94BB
:104CE000ACE5181664F0E8ECF6E084918F010F5FF4
:104CF0001F4F882321F00E942040F801F6CF85E461
:104D00000E94C73E882309F457C40E94943E6093D2
:104D1000BC137093BD138093BE139093BF134CC408
:104D20001F5FB4E0EB0EF11C133011F40C94751DF1
:104D3000F60181916F010E94C73E882389F30E948A
:104D4000943ED7016D937D938D939C931397812F00
:104D50000E949C3DE5CF0E948CA02EC40E940CA80E
:104D60002BC483E50E94103F882309F425C40E94C8
:104D7000643E70930402609303021EC48DED90E0C4
:104D80000E940F41811118C483E50E94103F8111D8
:104D900003C0E4EEFFE03BC00091340B10E00E9442
:104DA000643E000F111FF801EF5FFD4F71836083B8
:104DB0008091340B90E08C01000F111F000F111F28
:104DC000F801E15EFD4F7F01880F991FFC01EF5F45
:104DD000FD4F60817181072E000C880B990B0E949A
:104DE000B2E52AE037ED43E25CE30E9411E6F80108
:104DF000E352F34E20813181428153810E9411E6BA
:104E0000D7016D937D938D939C931397D5C3849114
:104E10008F010F5F1F4F882321F00E942040F8016F
:104E2000F6CF85E40E9420408091340B805D0E9483
:104E30002040E091340BF0E0EE0FFF1FEF5FFD4FDD
:104E4000608171818AEF96E00E943DCA85E20E94EE
:104E500020408AE00E942040AFC380E50E94C73E08
:104E6000882309F4A9C30E94643E6B017C0183E599
:104E70000E94103F882321F00E94643E8B0102C0F3
:104E80000FEF1FEFC8010196039708F095C3D7FCF9
:104E900093C38C2DE2E0F7E09491891709F45EC486
:104EA0003196B7E0EF32FB07B9F75BC483E50E94A8
:104EB000103F882319F00E94643E02C064E071E054
:104EC00079A368A380E50E94103F882339F00E94EF
:104ED000643E6938E3E17E0730F402C068EE73E0B7
:104EE0007A83698304C088E893E19A838983BE0149
:104EF000605E7F4FCE0101960E949A8E5DC383E56E
:104F00000E94C73E182F882371F00E94943E0E9491
:104F100099ED709324026093230221E0672B09F03E
:104F200020E02093510B80E50E94C73E882359F072
:104F30002091230230912402232B11F00E94853E00
:104F40008093510B39C3111137C3E4EEFFE0849114
:104F50008F010F5F1F4F882321F00E942040F8012E
:104F6000F6CF8091510B882319F066EB73E002C0F5
:104F700063E573E084E497E00E9455CA60912302E0
:104F80007091240283E397E00E943DCAEFE2F7E0CC
:104F900084918F010F5F1F4F882309F40DC30E9476
:104FA0002040F801F5CF0E943BA306C30E94204099
:104FB000F80184918F010F5F1F4F8111F7CFE7E553
:104FC000F7E084918F010F5F1F4F882309F4F4C22B
:104FD0000E942040F801F5CF0E94D762EDC281E027
:104FE0000E9469480E9421A9E7C280E00E946948A6
:104FF0000E9421A9E1C289E40E94103F882321F088
:105000000E94643E162F01C01FEF8AE40E94103FE9
:10501000882321F00E94643E062F01C00FEF8AE52D
:105020000E94C73EF82E811105C081E50E94C73E4F
:10503000D82E01C0D12C17FD06C007FD04C0F11009
:105040001CC0D1101AC0E4E2F0E184918F010F5F1F
:105050001F4F811103C0E5E8F7E004C00E94204023
:10506000F801F3CF84918F010F5F1F4F882309F45C
:10507000A3C20E942040F801F5CF133010F4033092
:10508000D0F0E4E2F0E184918F010F5F1F4F8111B6
:1050900003C0E6E6F7E004C00E942040F801F3CF29
:1050A00084918F010F5F1F4F882309F485C20E94EE
:1050B0002040F801F5CFE12E110FFF08002E000C63
:1050C000110B0E94943ED701AA0FBB1FDD2081F077
:1050D000FD01EE0DFF1DE00FF11FEE0FFF1FEE0FA4
:1050E000FF1FE950F94E208131814281538103C075
:1050F00020E030E0A901EA0EFB1E0E0D1F1D000F7F
:10510000111F000F111F0950194E0E9455ECD801B4
:105110006D937D938D939C9313974EC20E944CC9BF
:105120004BC20E94CBB248C283E50E94C73E88238F
:1051300021F00E94853E91E089270E9450AD3CC23B
:105140002093A4170E945EC31092A417882309F429
:1051500033C2E4EEFFE084918F010F5F1F4F811196
:1051600003C0E5EAF7E004C00E942040F801F3CF55
:1051700084918F010F5F1F4F882309F41DC20E9485
:105180002040F801F5CF8BE592E00E940F4181119C
:1051900013C285E50E94C73E8823D9F10091340BE4
:1051A00010E00E94943E6B017C0120E030E0A901F8
:1051B0000E947BEE87FF04C0F7FAF094F7F8F094B2
:1051C000000F111F000F111FF801E151F94EC082AD
:1051D000D182E282F3820091340BB4E00B9F800114
:1051E00011240151194E20E030E048E453E4F80165
:1051F00060817181828193810E947BEE18164CF44C
:1052000080E090E0A8E4B3E4F80180839183A28376
:10521000B3838CE40E94C73E882309F4CDC100917A
:10522000340B10E00E94943E6B017C0120E030E0E2
:10523000A9010E947BEE87FF04C0F7FAF094F7F80B
:10524000F094000F111F000F111FF801ED50F94EDF
:10525000C082D182E282F3820091340BF4E00F9F8E
:10526000800111240D50194E20E030E048E453E451
:10527000D8016D917D918D919C910E947BEE1816C5
:105280000CF09AC180E090E0A8E4B3E4F8018083D8
:105290009183A283B38390C18AE50E94103F81115C
:1052A00003C0E4EEFFE03BC00E94943E6B017C0132
:1052B00020E030E040EA51EC0E947BEE87FD0AC01E
:1052C00020E030E040EA51E4C701B6010E94ACE5BD
:1052D00018161CF4E4E2F0E10CC0C0922914D0923C
:1052E0002A14E0922B14F0922C1466C10E942040E4
:1052F000F80184918F010F5F1F4F8111F7CFE0EB11
:10530000F7E084918F010F5F1F4F882309F454C188
:105310000E942040F801F5CF0E942040F8018491BE
:105320008F010F5F1F4F8111F7CFE0EDF7E0849100
:105330008F010F5F1F4F882321F00E942040F8014A
:10534000F6CF4091291450912A1460912B1470913A
:105350002C148DEC97E00E9420CA8AE00E94204025
:105360002BC189E40E94103F882321F00E94743EE3
:10537000982E01C0912C9EE7A92E92E0B92E11E043
:1053800000E0D5018D915D010E94103F882379F1E5
:105390000E94643E6B017C016115710541F1023090
:1053A00081F00330A1F0013031F0B1E0B915F0F037
:1053B00082E49FE019C0E1E0E915C0F089EC9EE0CD
:1053C00013C0F1E0F91590F080E59EE00DC08AE889
:1053D00093E00E940F418111EFC08091340B811145
:1053E00005C0B60187ED9DE00E9482E110E00F5FED
:1053F000043039F6112309F4DFC060E082E49FE055
:105400000E94A2B761E089EC9EE00E94A2B762E030
:1054100080E59EE00E94A2B766E087ED9DE00E94D5
:10542000A2B7CAC06091470F80E00E946E506091A1
:10543000CE0E81E00E946E506091550E82E00E9477
:105440006E506091DC0D86E00E946E50B5C089E41C
:105450000E94103F882321F00E94743EF82E01C064
:10546000F12C8EE7C82E82E0D82E11E000E0D601A4
:105470008D916D010E94C73E882319F10E94643E00
:10548000603C7F4F44F00E94643E603471052CF410
:105490000E94643E03C060EC01C06FE3002319F07A
:1054A000013039F00DC0E1E0EF1550F082E49FE0EB
:1054B00005C0F1E0FF1520F089EC9EE00E94BD855B
:1054C00010E00F5F033099F6112309F475C082E4F0
:1054D0009FE00E949584682F80E00E943D5089ECF7
:1054E0009EE00E949584682F81E00E943D5064C038
:1054F00081E08093000283E50E94103F882339F009
:105500000E94853E811158C00E944D9B55C083E585
:105510000E94C73EF7CF0E94CE8E4EC0F090021D73
:105520000E94D7621091800980E00E94EC47FF2022
:1055300029F1E4EEFFE084918F010F5F1F4F882374
:1055400021F00E942040F801F6CF84E50E9420401F
:105550006F2D70E080E090E04AE00E94A44080E27D
:105560000E942040E1EFF7E084918F010F5F1F4F11
:10557000882311F10E942040F801F6CF10920F1DF0
:10558000812F0E94EC47E4EEFFE084918F010F5FD2
:105590001F4F882321F00E942040F801F6CF609130
:1055A0000F1D70E08FED97E00E943DCA8AE00E94D7
:1055B000204002C00E94CE8E109271160E94309B35
:1055C0001CC10E9484450E943C95F6CF0E94D76280
:1055D00080E00E94EC470E946F3C11E010936D0444
:1055E00088E50E94C73EB82E89E50E94C73E082F75
:1055F0008AE50E94C73EA82EB11004C0011104C064
:105600001A2505C0011102C010E001C01A2D0E9428
:105610000C4082E50E94103F882361F00E94943E76
:105620006B017C0120E030E0A9010E94ACE58823F9
:1056300071F106C0C12CD12C60EAE62E60E4F62E92
:10564000111104C0B11002C0002391F1C0922F17B4
:10565000D0923017E0923117F0923217A7019601DD
:1056600060913514709136148091371490913814EC
:105670000E94ACE587FF0BC019821A821B821C8234
:10568000BE016F5F7F4F8FE297E10E947E3D111157
:1056900005C0B11003C0011106C00AC080E00E941D
:1056A000DAB51123C1F381E00E94DAB5111102C00D
:1056B000AA2019F082E00E94DAB50E940D3E809186
:1056C0006C0480936D040E94563C0E9421A974CF03
:1056D000B1100C94B71F0C94B01F80E00E9404918D
:1056E0000C94E81F0E94643EAB01BC0140939C12E5
:1056F00050939D1260939E1270939F128CEC91E1D7
:105700000E94667059CF0E94D76288E50E94C73E0A
:10571000882331F05F9A80911C148E7F80931C1433
:1057200089E50E94C73E882331F08A9A80911C1433
:105730008D7F80931C148AE50E94C73E882331F038
:105740008C9A80911C148B7F80931C1485E40E949A
:10575000C73E882309F430CF129A2ECF0E9496DFDD
:105760002BCF0E94D762BC2C60E08C2D0E94418F11
:105770000F3F2FEF120759F48C2D0E94EB8E31E072
:1057800020E0892B09F030E0032F122F05C00130F3
:10579000110569F401E010E08B2D0E94EB8E80175B
:1057A000910709F409CF80E00E940491F5CF00E051
:1057B00010E0F2CF61E0812F0E94418F6E2D812F8A
:1057C0000E94138FF12CB701812F0E949BD21D32B2
:1057D00029F4F0920A0BE092090BEECE1E3229F466
:1057E000F0920C0BE0920B0BE7CE1C3209F0E4CEEA
:1057F000F092080BE092070BDFCEC559DF4F0FB6D2
:10580000F894DEBF0FBECDBFDF91CF911F910F91F6
:10581000FF90EF90DF90CF90BF90AF909F908F90D0
:105820007F906F905F904F903F902F9008953F92A0
:105830004F925F926F927F928F929F92AF92BF92A0
:10584000CF92DF92EF92FF920F931F93CF93DF934C
:10585000CDB7DEB7A5970FB6F894DEBF0FBECDBFAC
:105860000E949CD32B013C0160917F0470918004C5
:105870006115710509F49DC040E050E0E1E0F0E001
:1058800001E010E09F01042E02C0220F331F0A9492
:10589000E2F7DB01A223B323AB2BD1F020953095A7
:1058A000262337233093800420937F04423009F469
:1058B00059C028F4442391F0413039F17AC0443082
:1058C00009F458C008F449C0453009F460C071C0FB
:1058D0004F5F5F4F4031510599F66BC080911902BF
:1058E00090911A028436910509F463C084E690E031
:1058F0000E94194384E690E0909318028093170267
:1059000090931A028093190254C08091141049E1B7
:1059100050E0882319F064E170E102C067E070E1B3
:10592000CE0101960E94D6EF6EE270E0CE010196A4
:105930000E94ADEFFC018081882311F01192FBCF12
:1059400080ED90E199A388A349E1BE016F5F7F4F8D
:10595000CE0180960E9439432CC080918C048F7EAA
:1059600080938C0480918C04846080938C040E94CA
:10597000A2881FC05F9A80911C148E7F80931C1494
:105980008A9A80911C148D7F80931C1412C0809180
:10599000190290911A02019761F081E090E00E9453
:1059A0001943109318020093170210931A020093E0
:1059B0001902809109018170F82E80918904F816EE
:1059C00009F459C0F11020C0E4E1F8E084918F019E
:1059D0000F5F1F4F882321F00E942040F801F6CF6F
:1059E0000E947D8F80910510882309F43EC080E7D6
:1059F00090E10E94896A81E090E09A838983CE01D8
:105A000001960E946E6A2EC08091190290911A022E
:105A10008734910571F481E090E00E94194381E0A0
:105A200090E0909318028093170290931A0280934B
:105A300019021092041010920510E3E0F8E084912E
:105A40008F010F5F1F4F882321F00E942040F80133
:105A5000F6CF80E790E10E94896A8091AD0D8E5F5C
:105A60008093AD0D80E00E943E6AF092890410920E
:105A70008B0410928A04E0910F1DF0E0EE0FFF1FDF
:105A8000E95FF44F80819181209155043091560453
:105A90008217930779F0909356048093550482E11E
:105AA00097E10E94896A85E594E00E946E6A80E031
:105AB0000E943E6A009103021091040280915704F3
:105AC000909158048017910789F01093580400931F
:105AD000570481E197E10E94896A1A830983CE0104
